{
    "_format": "hh-sol-artifact-1",
    "contractName": "RestaurantManagement",
    "sourceName": "contracts/FoodDelivery.sol",
    "abi": [
        {
            "inputs": [],
            "stateMutability": "nonpayable",
            "type": "constructor"
        },
        {
            "inputs": [],
            "name": "AccessControlBadConfirmation",
            "type": "error"
        },
        {
            "inputs": [
                {
                    "internalType": "address",
                    "name": "account",
                    "type": "address"
                },
                {
                    "internalType": "bytes32",
                    "name": "neededRole",
                    "type": "bytes32"
                }
            ],
            "name": "AccessControlUnauthorizedAccount",
            "type": "error"
        },
        {
            "inputs": [],
            "name": "EnforcedPause",
            "type": "error"
        },
        {
            "inputs": [],
            "name": "ExpectedPause",
            "type": "error"
        },
        {
            "inputs": [],
            "name": "ReentrancyGuardReentrantCall",
            "type": "error"
        },
        {
            "anonymous": false,
            "inputs": [
                {
                    "indexed": true,
                    "internalType": "uint256",
                    "name": "categoryId",
                    "type": "uint256"
                },
                {
                    "indexed": false,
                    "internalType": "string",
                    "name": "name",
                    "type": "string"
                },
                {
                    "indexed": false,
                    "internalType": "string",
                    "name": "imageUrl",
                    "type": "string"
                }
            ],
            "name": "CategoryAdded",
            "type": "event"
        },
        {
            "anonymous": false,
            "inputs": [
                {
                    "indexed": true,
                    "internalType": "uint256",
                    "name": "categoryId",
                    "type": "uint256"
                },
                {
                    "indexed": false,
                    "internalType": "string",
                    "name": "name",
                    "type": "string"
                },
                {
                    "indexed": false,
                    "internalType": "string",
                    "name": "imageUrl",
                    "type": "string"
                },
                {
                    "indexed": false,
                    "internalType": "bool",
                    "name": "isActive",
                    "type": "bool"
                }
            ],
            "name": "CategoryUpdated",
            "type": "event"
        },
        {
            "anonymous": false,
            "inputs": [
                {
                    "indexed": true,
                    "internalType": "uint256",
                    "name": "foodId",
                    "type": "uint256"
                },
                {
                    "indexed": false,
                    "internalType": "string",
                    "name": "name",
                    "type": "string"
                },
                {
                    "indexed": false,
                    "internalType": "uint256",
                    "name": "categoryId",
                    "type": "uint256"
                },
                {
                    "indexed": false,
                    "internalType": "uint256",
                    "name": "price",
                    "type": "uint256"
                }
            ],
            "name": "FoodAdded",
            "type": "event"
        },
        {
            "anonymous": false,
            "inputs": [
                {
                    "indexed": true,
                    "internalType": "uint256",
                    "name": "foodId",
                    "type": "uint256"
                },
                {
                    "indexed": false,
                    "internalType": "string",
                    "name": "name",
                    "type": "string"
                },
                {
                    "indexed": false,
                    "internalType": "uint256",
                    "name": "price",
                    "type": "uint256"
                },
                {
                    "indexed": false,
                    "internalType": "bool",
                    "name": "isAvailable",
                    "type": "bool"
                }
            ],
            "name": "FoodUpdated",
            "type": "event"
        },
        {
            "anonymous": false,
            "inputs": [
                {
                    "indexed": true,
                    "internalType": "uint256",
                    "name": "orderId",
                    "type": "uint256"
                },
                {
                    "indexed": true,
                    "internalType": "address",
                    "name": "customer",
                    "type": "address"
                },
                {
                    "indexed": false,
                    "internalType": "uint256",
                    "name": "totalAmount",
                    "type": "uint256"
                }
            ],
            "name": "OrderCreated",
            "type": "event"
        },
        {
            "anonymous": false,
            "inputs": [
                {
                    "indexed": true,
                    "internalType": "uint256",
                    "name": "orderId",
                    "type": "uint256"
                },
                {
                    "indexed": false,
                    "internalType": "enum RestaurantManagement.OrderStatus",
                    "name": "status",
                    "type": "uint8"
                }
            ],
            "name": "OrderStatusUpdated",
            "type": "event"
        },
        {
            "anonymous": false,
            "inputs": [
                {
                    "indexed": false,
                    "internalType": "address",
                    "name": "account",
                    "type": "address"
                }
            ],
            "name": "Paused",
            "type": "event"
        },
        {
            "anonymous": false,
            "inputs": [
                {
                    "indexed": true,
                    "internalType": "address",
                    "name": "customer",
                    "type": "address"
                },
                {
                    "indexed": false,
                    "internalType": "uint256",
                    "name": "amount",
                    "type": "uint256"
                },
                {
                    "indexed": false,
                    "internalType": "uint256",
                    "name": "fee",
                    "type": "uint256"
                }
            ],
            "name": "PaymentReceived",
            "type": "event"
        },
        {
            "anonymous": false,
            "inputs": [
                {
                    "indexed": false,
                    "internalType": "uint256",
                    "name": "newFee",
                    "type": "uint256"
                }
            ],
            "name": "PlatformFeeUpdated",
            "type": "event"
        },
        {
            "anonymous": false,
            "inputs": [
                {
                    "indexed": true,
                    "internalType": "uint256",
                    "name": "foodId",
                    "type": "uint256"
                },
                {
                    "indexed": false,
                    "internalType": "uint256",
                    "name": "newPrice",
                    "type": "uint256"
                }
            ],
            "name": "PriceUpdated",
            "type": "event"
        },
        {
            "anonymous": false,
            "inputs": [
                {
                    "indexed": true,
                    "internalType": "bytes32",
                    "name": "role",
                    "type": "bytes32"
                },
                {
                    "indexed": true,
                    "internalType": "bytes32",
                    "name": "previousAdminRole",
                    "type": "bytes32"
                },
                {
                    "indexed": true,
                    "internalType": "bytes32",
                    "name": "newAdminRole",
                    "type": "bytes32"
                }
            ],
            "name": "RoleAdminChanged",
            "type": "event"
        },
        {
            "anonymous": false,
            "inputs": [
                {
                    "indexed": true,
                    "internalType": "bytes32",
                    "name": "role",
                    "type": "bytes32"
                },
                {
                    "indexed": true,
                    "internalType": "address",
                    "name": "account",
                    "type": "address"
                },
                {
                    "indexed": true,
                    "internalType": "address",
                    "name": "sender",
                    "type": "address"
                }
            ],
            "name": "RoleGranted",
            "type": "event"
        },
        {
            "anonymous": false,
            "inputs": [
                {
                    "indexed": true,
                    "internalType": "bytes32",
                    "name": "role",
                    "type": "bytes32"
                },
                {
                    "indexed": true,
                    "internalType": "address",
                    "name": "account",
                    "type": "address"
                },
                {
                    "indexed": true,
                    "internalType": "address",
                    "name": "sender",
                    "type": "address"
                }
            ],
            "name": "RoleRevoked",
            "type": "event"
        },
        {
            "anonymous": false,
            "inputs": [
                {
                    "indexed": false,
                    "internalType": "address",
                    "name": "account",
                    "type": "address"
                }
            ],
            "name": "Unpaused",
            "type": "event"
        },
        {
            "inputs": [],
            "name": "ADMIN_ROLE",
            "outputs": [
                {
                    "internalType": "bytes32",
                    "name": "",
                    "type": "bytes32"
                }
            ],
            "stateMutability": "view",
            "type": "function"
        },
        {
            "inputs": [],
            "name": "DEFAULT_ADMIN_ROLE",
            "outputs": [
                {
                    "internalType": "bytes32",
                    "name": "",
                    "type": "bytes32"
                }
            ],
            "stateMutability": "view",
            "type": "function"
        },
        {
            "inputs": [
                {
                    "internalType": "string",
                    "name": "_name",
                    "type": "string"
                },
                {
                    "internalType": "string",
                    "name": "_description",
                    "type": "string"
                },
                {
                    "internalType": "string",
                    "name": "_imageUrl",
                    "type": "string"
                }
            ],
            "name": "addCategory",
            "outputs": [],
            "stateMutability": "nonpayable",
            "type": "function"
        },
        {
            "inputs": [
                {
                    "internalType": "string",
                    "name": "_name",
                    "type": "string"
                },
                {
                    "internalType": "string",
                    "name": "_description",
                    "type": "string"
                },
                {
                    "internalType": "uint256",
                    "name": "_price",
                    "type": "uint256"
                },
                {
                    "internalType": "string",
                    "name": "_imageUrl",
                    "type": "string"
                },
                {
                    "internalType": "uint256",
                    "name": "_categoryId",
                    "type": "uint256"
                }
            ],
            "name": "addFood",
            "outputs": [],
            "stateMutability": "nonpayable",
            "type": "function"
        },
        {
            "inputs": [
                {
                    "internalType": "uint256",
                    "name": "_orderId",
                    "type": "uint256"
                }
            ],
            "name": "cancelOrder",
            "outputs": [],
            "stateMutability": "nonpayable",
            "type": "function"
        },
        {
            "inputs": [
                {
                    "internalType": "uint256",
                    "name": "",
                    "type": "uint256"
                }
            ],
            "name": "categories",
            "outputs": [
                {
                    "internalType": "string",
                    "name": "name",
                    "type": "string"
                },
                {
                    "internalType": "string",
                    "name": "description",
                    "type": "string"
                },
                {
                    "internalType": "string",
                    "name": "imageUrl",
                    "type": "string"
                },
                {
                    "internalType": "bool",
                    "name": "isActive",
                    "type": "bool"
                }
            ],
            "stateMutability": "view",
            "type": "function"
        },
        {
            "inputs": [],
            "name": "categoryCounter",
            "outputs": [
                {
                    "internalType": "uint256",
                    "name": "",
                    "type": "uint256"
                }
            ],
            "stateMutability": "view",
            "type": "function"
        },
        {
            "inputs": [
                {
                    "internalType": "uint256",
                    "name": "",
                    "type": "uint256"
                },
                {
                    "internalType": "uint256",
                    "name": "",
                    "type": "uint256"
                }
            ],
            "name": "categoryFoods",
            "outputs": [
                {
                    "internalType": "uint256",
                    "name": "",
                    "type": "uint256"
                }
            ],
            "stateMutability": "view",
            "type": "function"
        },
        {
            "inputs": [
                {
                    "internalType": "uint256",
                    "name": "_orderId",
                    "type": "uint256"
                }
            ],
            "name": "completeOrder",
            "outputs": [],
            "stateMutability": "nonpayable",
            "type": "function"
        },
        {
            "inputs": [
                {
                    "internalType": "uint256",
                    "name": "_orderId",
                    "type": "uint256"
                }
            ],
            "name": "confirmOrder",
            "outputs": [],
            "stateMutability": "nonpayable",
            "type": "function"
        },
        {
            "inputs": [
                {
                    "internalType": "uint256[]",
                    "name": "_foodIds",
                    "type": "uint256[]"
                },
                {
                    "internalType": "uint256[]",
                    "name": "_quantities",
                    "type": "uint256[]"
                }
            ],
            "name": "createOrder",
            "outputs": [],
            "stateMutability": "payable",
            "type": "function"
        },
        {
            "inputs": [
                {
                    "internalType": "address",
                    "name": "",
                    "type": "address"
                },
                {
                    "internalType": "uint256",
                    "name": "",
                    "type": "uint256"
                }
            ],
            "name": "customerOrders",
            "outputs": [
                {
                    "internalType": "uint256",
                    "name": "",
                    "type": "uint256"
                }
            ],
            "stateMutability": "view",
            "type": "function"
        },
        {
            "inputs": [],
            "name": "foodCounter",
            "outputs": [
                {
                    "internalType": "uint256",
                    "name": "",
                    "type": "uint256"
                }
            ],
            "stateMutability": "view",
            "type": "function"
        },
        {
            "inputs": [
                {
                    "internalType": "uint256",
                    "name": "",
                    "type": "uint256"
                }
            ],
            "name": "foods",
            "outputs": [
                {
                    "internalType": "string",
                    "name": "name",
                    "type": "string"
                },
                {
                    "internalType": "string",
                    "name": "description",
                    "type": "string"
                },
                {
                    "internalType": "uint256",
                    "name": "price",
                    "type": "uint256"
                },
                {
                    "internalType": "bool",
                    "name": "isAvailable",
                    "type": "bool"
                },
                {
                    "internalType": "string",
                    "name": "imageUrl",
                    "type": "string"
                },
                {
                    "internalType": "uint256",
                    "name": "categoryId",
                    "type": "uint256"
                }
            ],
            "stateMutability": "view",
            "type": "function"
        },
        {
            "inputs": [],
            "name": "getActiveCategories",
            "outputs": [
                {
                    "components": [
                        {
                            "internalType": "string",
                            "name": "name",
                            "type": "string"
                        },
                        {
                            "internalType": "string",
                            "name": "description",
                            "type": "string"
                        },
                        {
                            "internalType": "string",
                            "name": "imageUrl",
                            "type": "string"
                        },
                        {
                            "internalType": "bool",
                            "name": "isActive",
                            "type": "bool"
                        }
                    ],
                    "internalType": "struct RestaurantManagement.Category[]",
                    "name": "",
                    "type": "tuple[]"
                }
            ],
            "stateMutability": "view",
            "type": "function"
        },
        {
            "inputs": [],
            "name": "getAllCategories",
            "outputs": [
                {
                    "components": [
                        {
                            "internalType": "string",
                            "name": "name",
                            "type": "string"
                        },
                        {
                            "internalType": "string",
                            "name": "description",
                            "type": "string"
                        },
                        {
                            "internalType": "string",
                            "name": "imageUrl",
                            "type": "string"
                        },
                        {
                            "internalType": "bool",
                            "name": "isActive",
                            "type": "bool"
                        }
                    ],
                    "internalType": "struct RestaurantManagement.Category[]",
                    "name": "",
                    "type": "tuple[]"
                }
            ],
            "stateMutability": "view",
            "type": "function"
        },
        {
            "inputs": [
                {
                    "internalType": "uint256",
                    "name": "_categoryId",
                    "type": "uint256"
                }
            ],
            "name": "getCategory",
            "outputs": [
                {
                    "components": [
                        {
                            "internalType": "string",
                            "name": "name",
                            "type": "string"
                        },
                        {
                            "internalType": "string",
                            "name": "description",
                            "type": "string"
                        },
                        {
                            "internalType": "string",
                            "name": "imageUrl",
                            "type": "string"
                        },
                        {
                            "internalType": "bool",
                            "name": "isActive",
                            "type": "bool"
                        }
                    ],
                    "internalType": "struct RestaurantManagement.Category",
                    "name": "",
                    "type": "tuple"
                }
            ],
            "stateMutability": "view",
            "type": "function"
        },
        {
            "inputs": [
                {
                    "internalType": "uint256",
                    "name": "_categoryId",
                    "type": "uint256"
                }
            ],
            "name": "getCategoryFoodCount",
            "outputs": [
                {
                    "internalType": "uint256",
                    "name": "",
                    "type": "uint256"
                }
            ],
            "stateMutability": "view",
            "type": "function"
        },
        {
            "inputs": [
                {
                    "internalType": "address",
                    "name": "_customer",
                    "type": "address"
                }
            ],
            "name": "getCustomerOrders",
            "outputs": [
                {
                    "components": [
                        {
                            "internalType": "uint256",
                            "name": "orderId",
                            "type": "uint256"
                        },
                        {
                            "internalType": "address",
                            "name": "customer",
                            "type": "address"
                        },
                        {
                            "internalType": "uint256[]",
                            "name": "foodIds",
                            "type": "uint256[]"
                        },
                        {
                            "internalType": "string[]",
                            "name": "foodNames",
                            "type": "string[]"
                        },
                        {
                            "internalType": "uint256[]",
                            "name": "quantities",
                            "type": "uint256[]"
                        },
                        {
                            "internalType": "uint256",
                            "name": "totalAmount",
                            "type": "uint256"
                        },
                        {
                            "internalType": "uint256",
                            "name": "timestamp",
                            "type": "uint256"
                        },
                        {
                            "internalType": "enum RestaurantManagement.OrderStatus",
                            "name": "status",
                            "type": "uint8"
                        }
                    ],
                    "internalType": "struct RestaurantManagement.Order[]",
                    "name": "",
                    "type": "tuple[]"
                }
            ],
            "stateMutability": "view",
            "type": "function"
        },
        {
            "inputs": [
                {
                    "internalType": "uint256",
                    "name": "_foodId",
                    "type": "uint256"
                }
            ],
            "name": "getFood",
            "outputs": [
                {
                    "components": [
                        {
                            "internalType": "string",
                            "name": "name",
                            "type": "string"
                        },
                        {
                            "internalType": "string",
                            "name": "description",
                            "type": "string"
                        },
                        {
                            "internalType": "uint256",
                            "name": "price",
                            "type": "uint256"
                        },
                        {
                            "internalType": "bool",
                            "name": "isAvailable",
                            "type": "bool"
                        },
                        {
                            "internalType": "string",
                            "name": "imageUrl",
                            "type": "string"
                        },
                        {
                            "internalType": "uint256",
                            "name": "categoryId",
                            "type": "uint256"
                        }
                    ],
                    "internalType": "struct RestaurantManagement.Food",
                    "name": "",
                    "type": "tuple"
                }
            ],
            "stateMutability": "view",
            "type": "function"
        },
        {
            "inputs": [
                {
                    "internalType": "uint256",
                    "name": "_categoryId",
                    "type": "uint256"
                }
            ],
            "name": "getFoodsByCategory",
            "outputs": [
                {
                    "components": [
                        {
                            "internalType": "string",
                            "name": "name",
                            "type": "string"
                        },
                        {
                            "internalType": "string",
                            "name": "description",
                            "type": "string"
                        },
                        {
                            "internalType": "uint256",
                            "name": "price",
                            "type": "uint256"
                        },
                        {
                            "internalType": "bool",
                            "name": "isAvailable",
                            "type": "bool"
                        },
                        {
                            "internalType": "string",
                            "name": "imageUrl",
                            "type": "string"
                        },
                        {
                            "internalType": "uint256",
                            "name": "categoryId",
                            "type": "uint256"
                        }
                    ],
                    "internalType": "struct RestaurantManagement.Food[]",
                    "name": "",
                    "type": "tuple[]"
                }
            ],
            "stateMutability": "view",
            "type": "function"
        },
        {
            "inputs": [
                {
                    "internalType": "uint256",
                    "name": "_orderId",
                    "type": "uint256"
                }
            ],
            "name": "getOrder",
            "outputs": [
                {
                    "components": [
                        {
                            "internalType": "uint256",
                            "name": "orderId",
                            "type": "uint256"
                        },
                        {
                            "internalType": "address",
                            "name": "customer",
                            "type": "address"
                        },
                        {
                            "internalType": "uint256[]",
                            "name": "foodIds",
                            "type": "uint256[]"
                        },
                        {
                            "internalType": "string[]",
                            "name": "foodNames",
                            "type": "string[]"
                        },
                        {
                            "internalType": "uint256[]",
                            "name": "quantities",
                            "type": "uint256[]"
                        },
                        {
                            "internalType": "uint256",
                            "name": "totalAmount",
                            "type": "uint256"
                        },
                        {
                            "internalType": "uint256",
                            "name": "timestamp",
                            "type": "uint256"
                        },
                        {
                            "internalType": "enum RestaurantManagement.OrderStatus",
                            "name": "status",
                            "type": "uint8"
                        }
                    ],
                    "internalType": "struct RestaurantManagement.Order",
                    "name": "",
                    "type": "tuple"
                }
            ],
            "stateMutability": "view",
            "type": "function"
        },
        {
            "inputs": [],
            "name": "getPendingOrders",
            "outputs": [
                {
                    "components": [
                        {
                            "internalType": "uint256",
                            "name": "orderId",
                            "type": "uint256"
                        },
                        {
                            "internalType": "address",
                            "name": "customer",
                            "type": "address"
                        },
                        {
                            "internalType": "uint256[]",
                            "name": "foodIds",
                            "type": "uint256[]"
                        },
                        {
                            "internalType": "string[]",
                            "name": "foodNames",
                            "type": "string[]"
                        },
                        {
                            "internalType": "uint256[]",
                            "name": "quantities",
                            "type": "uint256[]"
                        },
                        {
                            "internalType": "uint256",
                            "name": "totalAmount",
                            "type": "uint256"
                        },
                        {
                            "internalType": "uint256",
                            "name": "timestamp",
                            "type": "uint256"
                        },
                        {
                            "internalType": "enum RestaurantManagement.OrderStatus",
                            "name": "status",
                            "type": "uint8"
                        }
                    ],
                    "internalType": "struct RestaurantManagement.Order[]",
                    "name": "",
                    "type": "tuple[]"
                }
            ],
            "stateMutability": "view",
            "type": "function"
        },
        {
            "inputs": [
                {
                    "internalType": "bytes32",
                    "name": "role",
                    "type": "bytes32"
                }
            ],
            "name": "getRoleAdmin",
            "outputs": [
                {
                    "internalType": "bytes32",
                    "name": "",
                    "type": "bytes32"
                }
            ],
            "stateMutability": "view",
            "type": "function"
        },
        {
            "inputs": [
                {
                    "internalType": "bytes32",
                    "name": "role",
                    "type": "bytes32"
                },
                {
                    "internalType": "address",
                    "name": "account",
                    "type": "address"
                }
            ],
            "name": "grantRole",
            "outputs": [],
            "stateMutability": "nonpayable",
            "type": "function"
        },
        {
            "inputs": [
                {
                    "internalType": "bytes32",
                    "name": "role",
                    "type": "bytes32"
                },
                {
                    "internalType": "address",
                    "name": "account",
                    "type": "address"
                }
            ],
            "name": "hasRole",
            "outputs": [
                {
                    "internalType": "bool",
                    "name": "",
                    "type": "bool"
                }
            ],
            "stateMutability": "view",
            "type": "function"
        },
        {
            "inputs": [],
            "name": "orderCounter",
            "outputs": [
                {
                    "internalType": "uint256",
                    "name": "",
                    "type": "uint256"
                }
            ],
            "stateMutability": "view",
            "type": "function"
        },
        {
            "inputs": [
                {
                    "internalType": "uint256",
                    "name": "",
                    "type": "uint256"
                }
            ],
            "name": "orders",
            "outputs": [
                {
                    "internalType": "uint256",
                    "name": "orderId",
                    "type": "uint256"
                },
                {
                    "internalType": "address",
                    "name": "customer",
                    "type": "address"
                },
                {
                    "internalType": "uint256",
                    "name": "totalAmount",
                    "type": "uint256"
                },
                {
                    "internalType": "uint256",
                    "name": "timestamp",
                    "type": "uint256"
                },
                {
                    "internalType": "enum RestaurantManagement.OrderStatus",
                    "name": "status",
                    "type": "uint8"
                }
            ],
            "stateMutability": "view",
            "type": "function"
        },
        {
            "inputs": [],
            "name": "owner",
            "outputs": [
                {
                    "internalType": "address payable",
                    "name": "",
                    "type": "address"
                }
            ],
            "stateMutability": "view",
            "type": "function"
        },
        {
            "inputs": [],
            "name": "paused",
            "outputs": [
                {
                    "internalType": "bool",
                    "name": "",
                    "type": "bool"
                }
            ],
            "stateMutability": "view",
            "type": "function"
        },
        {
            "inputs": [],
            "name": "platformFee",
            "outputs": [
                {
                    "internalType": "uint256",
                    "name": "",
                    "type": "uint256"
                }
            ],
            "stateMutability": "view",
            "type": "function"
        },
        {
            "inputs": [
                {
                    "internalType": "bytes32",
                    "name": "role",
                    "type": "bytes32"
                },
                {
                    "internalType": "address",
                    "name": "callerConfirmation",
                    "type": "address"
                }
            ],
            "name": "renounceRole",
            "outputs": [],
            "stateMutability": "nonpayable",
            "type": "function"
        },
        {
            "inputs": [
                {
                    "internalType": "bytes32",
                    "name": "role",
                    "type": "bytes32"
                },
                {
                    "internalType": "address",
                    "name": "account",
                    "type": "address"
                }
            ],
            "name": "revokeRole",
            "outputs": [],
            "stateMutability": "nonpayable",
            "type": "function"
        },
        {
            "inputs": [
                {
                    "internalType": "uint256",
                    "name": "_newFee",
                    "type": "uint256"
                }
            ],
            "name": "setPlatformFee",
            "outputs": [],
            "stateMutability": "nonpayable",
            "type": "function"
        },
        {
            "inputs": [
                {
                    "internalType": "bytes4",
                    "name": "interfaceId",
                    "type": "bytes4"
                }
            ],
            "name": "supportsInterface",
            "outputs": [
                {
                    "internalType": "bool",
                    "name": "",
                    "type": "bool"
                }
            ],
            "stateMutability": "view",
            "type": "function"
        },
        {
            "inputs": [
                {
                    "internalType": "uint256",
                    "name": "_foodId",
                    "type": "uint256"
                }
            ],
            "name": "toggleFoodAvailability",
            "outputs": [],
            "stateMutability": "nonpayable",
            "type": "function"
        },
        {
            "inputs": [
                {
                    "internalType": "uint256",
                    "name": "_categoryId",
                    "type": "uint256"
                },
                {
                    "internalType": "string",
                    "name": "_name",
                    "type": "string"
                },
                {
                    "internalType": "string",
                    "name": "_description",
                    "type": "string"
                },
                {
                    "internalType": "string",
                    "name": "_imageUrl",
                    "type": "string"
                },
                {
                    "internalType": "bool",
                    "name": "_isActive",
                    "type": "bool"
                }
            ],
            "name": "updateCategory",
            "outputs": [],
            "stateMutability": "nonpayable",
            "type": "function"
        },
        {
            "inputs": [
                {
                    "internalType": "uint256",
                    "name": "_foodId",
                    "type": "uint256"
                },
                {
                    "internalType": "string",
                    "name": "_name",
                    "type": "string"
                },
                {
                    "internalType": "string",
                    "name": "_description",
                    "type": "string"
                },
                {
                    "internalType": "uint256",
                    "name": "_price",
                    "type": "uint256"
                },
                {
                    "internalType": "bool",
                    "name": "_isAvailable",
                    "type": "bool"
                },
                {
                    "internalType": "string",
                    "name": "_imageUrl",
                    "type": "string"
                }
            ],
            "name": "updateFood",
            "outputs": [],
            "stateMutability": "nonpayable",
            "type": "function"
        },
        {
            "inputs": [
                {
                    "internalType": "uint256",
                    "name": "_foodId",
                    "type": "uint256"
                },
                {
                    "internalType": "uint256",
                    "name": "_newPrice",
                    "type": "uint256"
                }
            ],
            "name": "updateFoodPrice",
            "outputs": [],
            "stateMutability": "nonpayable",
            "type": "function"
        },
        {
            "inputs": [],
            "name": "withdrawFees",
            "outputs": [],
            "stateMutability": "nonpayable",
            "type": "function"
        }
    ],
    "bytecode": "0x60806040523462000057576001805560ff1960025416600255600560035562000028336200005c565b506200003433620000dc565b50600480546001600160a01b0319163317905560405161380990816200017f8239f35b600080fd5b6001600160a01b031660008181527fad3228b676f7d3cd4284a5443f17f1962b36e491b30a40b2405849e597ba5fb5602052604081205490919060ff16620000d857818052816020526040822081835260205260408220600160ff198254161790553391600080516020620039888339815191528180a4600190565b5090565b6001600160a01b031660008181527f7d7ffb7a348e1c6a02869081a26547b49160dd3df72d1d75a570eb9b698292ec60205260408120549091907fa49807205ce4d355092ef5a8a18f56e8913cf4a201fbe287825b095693c217759060ff166200017957808352826020526040832082845260205260408320600160ff1982541617905560008051602062003988833981519152339380a4600190565b50509056fe608080604052600436101561001357600080fd5b60e060003560e01c91826301ffc9a714612d5f5750816303624fc014612d4157816312e8e2c314612ca757816314d3f10e14612c005781631600c6cd14612bb85781631d73b9e214612a425781631e4de872146129975781631ed5bec314612958578163219ea6201461254e57816322f974d2146123f3578163248a9ca3146123c457816326232a2e146123a65781632781963a14611ebc5781632f2ff15d14611e7d57816336568abe14611e36578163476343ee14611db657816349a40d3414611d9857816349e5e9011461197a578163514fcac71461180d5781635c975abb146117ea57816375b238fc146117af57816378e8da7c146116325781637c35062414611484575080638ac7d79c146113365780638da5cb5b1461130f57806391d14854146112c15780639825910e14611287578063a217fddf1461126b578063a85c38ef146111ff578063aa8683aa1461119a578063b6adaaff146110cd578063b789bf52146110af578063b91fd945146109f5578063c2e06e021461091a578063c414a83d146104b8578063c6cdbe5e14610426578063d09ef24114610310578063d547741f146102cf578063dadd0a571461023a5763f3052d26146101da57600080fd5b34610235576020366003190112610235576004356101f66135a6565b50610205600a548211156134b4565b600052600560205261023161021d604060002061361b565b604051918291602083526020830190613270565b0390f35b600080fd5b3461023557600036600319011261023557600a54610257816135cb565b9060015b81811115610271576040518061023185826132aa565b8060005260056020526040600020906000198101918183116102b9576102b49261029d6102ae9261361b565b6102a78288613494565b5285613494565b5061338e565b61025b565b634e487b7160e01b600052601160045260246000fd5b346102355760403660031901126102355761030e6004356102ee612f5e565b908060005260006020526103096001604060002001546136e1565b613786565b005b34610235576020806003193601126102355760043561032d613405565b5061033c600c5482111561353a565b600052600881526040600020906040519161035683612e24565b8054835260016001600160a01b036001830154168385015261037a600283016133b4565b60408501526003820190815461038f816131f8565b9261039d6040519485612e41565b8184526000908152858120868086015b8484106104095789826103f560ff60078c8c60608701526103d0600482016133b4565b6080870152600581015460a0870152600681015460c087015201541660e084016134a8565b6102316040519282849384528301906130b0565b8591829161041685612e63565b81520192019201919087906103ad565b34610235576020366003190112610235576004356000526005602052610490604060002061045381612e63565b906104ac61046360018301612e63565b9161049e60ff600361047760028501612e63565b9301541693604051968796608088526080880190612f08565b908682036020880152612f08565b908482036040860152612f08565b90151560608301520390f35b346102355760c03660031901126102355760043560243567ffffffffffffffff8111610235576104ec903690600401613018565b60443567ffffffffffffffff81116102355761050c903690600401613018565b6105146131e9565b9060a43567ffffffffffffffff811161023557610535903690600401613018565b9061053e613667565b61054c600b5486111561330e565b846000526006602052604060002090845167ffffffffffffffff81116107ba576105768354612db2565b601f81116108e8575b506020601f82116001146108835790806105af92600091610878575b508160011b916000199060031b1c19161790565b82555b80519067ffffffffffffffff82116107ba576105d16001840154612db2565b601f8111610843575b50602090601f83116001146107d057918061061092600495946000926106e3575b50508160011b916000199060031b1c19161790565b60018201555b606435600282015561063784600383019060ff801983541691151516179055565b019080519067ffffffffffffffff82116107ba576106558354612db2565b601f811161077d575b50602090601f83116001146106ee57826106ce95937f3180bb0fefc77f02602140c09c36b1954a46b6aa4b78141cfc6c15d38295fbb69795936106b7936000926106e35750508160011b916000199060031b1c19161790565b90555b604051928392606084526060840190612f08565b906064356020840152151560408301520390a2005b0151905089806105fb565b90601f198316918460005260206000209260005b81811061076557509260019285926106ce98967f3180bb0fefc77f02602140c09c36b1954a46b6aa4b78141cfc6c15d38295fbb69a98961061074c575b505050811b0190556106ba565b015160001960f88460031b161c1916905588808061073f565b92936020600181928786015181550195019301610702565b6107aa90846000526020600020601f850160051c810191602086106107b0575b601f0160051c019061339d565b8661065e565b909150819061079d565b634e487b7160e01b600052604160045260246000fd5b906001840160005260206000209160005b601f198516811061082b575091839160019360049695601f19811610610812575b505050811b016001820155610616565b015160001960f88460031b161c19169055888080610802565b919260206001819286850151815501940192016107e1565b61087290600185016000526020600020601f850160051c810191602086106107b057601f0160051c019061339d565b876105da565b90508701518961059b565b601f198216908460005260206000209160005b8181106108d0575090836001949392106108b7575b5050811b0182556105b2565b88015160001960f88460031b161c1916905588806108ab565b9192602060018192868d015181550194019201610896565b61091490846000526020600020601f840160051c810191602085106107b057601f0160051c019061339d565b8761057f565b3461023557600036600319011261023557600a54600060015b828111156109b85750610945906135cb565b90600060015b82811115610961576040518061023186826132aa565b806000526005602052604060002060ff60038201541661098b575b506109869061338e565b61094b565b610986919261099c6109b19261361b565b6109a68288613494565b526102ae8187613494565b919061097c565b80600052600560205260ff600360406000200154166109e0575b6109db9061338e565b610933565b906109ed6109db9161338e565b9190506109d2565b60403660031901126102355760043567ffffffffffffffff811161023557610a21903690600401613210565b60243567ffffffffffffffff811161023557610a41903690600401613210565b906002806001541461109d576002600155815115611058578151835103611013576000825193610a70856131f8565b94610a7e6040519687612e41565b808652610a8d601f19916131f8565b0160005b818110611002575050600b549360005b8151811015610b7757610ac086610ab88385613494565b51111561330e565b610aca8183613494565b516000526020936006855260406000209460ff60038701541615610b33575090610b17610b11600193610b0b89890154610b04868a613494565b5190613586565b90613599565b95612e63565b610b21828a613494565b52610b2c8189613494565b5001610aa1565b6064906040519062461bcd60e51b82526004820152601260248201527f466f6f64206e6f7420617661696c61626c6500000000000000000000000000006044820152fd5b50908590610b936064610b8c60035487613586565b0485613599565b3410610fbd57610ba4600c5461338e565b9182600c5560405193610bb685612e24565b8385523360208601526040850152606084015260808301528260a08301524260c0830152600060e08301526000526008602052604060002081518155600181016001600160a01b036020840151167fffffffffffffffffffffffff0000000000000000000000000000000000000000825416179055604082015180519067ffffffffffffffff82116107ba576801000000000000000082116107ba576020906002840154836002860155808410610f9d575b500160028301600052602060002060005b838110610f89575050505060608201518051906801000000000000000082116107ba576003830154826003850155808310610f10575b5060200190600383016000526020600020916000905b828210610deb57505050506004810160808301519081519167ffffffffffffffff83116107ba576801000000000000000083116107ba576020908254848455808510610dce575b500190600052602060002060005b838110610dba57868660e060078860a0840151600582015560c08401516006820155019101516004811015610da45760ff80198354169116179055336000526009602052610d6f6040600020600c5490613500565b600c546040519182527f28eb86fd03c9bd96a8a83e4a46ab2ad257b70cea893d98ad6d482e96aa25fad060203393a360018055005b634e487b7160e01b600052602160045260246000fd5b600190602084519401938184015501610d1a565b610de590846000528584600020918201910161339d565b87610d0c565b805180519067ffffffffffffffff82116107ba57610e098654612db2565b90601f91828111610ed6575b506020918311600114610e665792610e4c83600195946020948796600092610e5b5750508160011b916000199060031b1c19161790565b87555b01940191019092610cc5565b015190508d806105fb565b908660005260206000209160005b601f1985168110610ebe575083602093600196938796938794601f19811610610ea5575b505050811b018755610e4f565b015160001960f88460031b161c191690558c8080610e98565b91926020600181928685015181550194019201610e74565b610f0190886000526020600020600585808801821c83019360208910610f07575b01901c019061339d565b8a610e15565b93508293610ef7565b600384016000526020600020908382015b8183018110610f31575050610caf565b80610f3e60019254612db2565b80610f4b575b5001610f21565b601f908181118414610f64575050600081555b89610f44565b610f8060009284845260208420920160051c820185830161339d565b81835555610f5e565b600190602084519401938184015501610c79565b610fb790600286016000528484600020918201910161339d565b86610c68565b60405162461bcd60e51b815260206004820152601460248201527f496e73756666696369656e74207061796d656e740000000000000000000000006044820152606490fd5b806060602080938a01015201610a91565b60405162461bcd60e51b815260206004820152601660248201527f417272617973206c656e677468206d69736d61746368000000000000000000006044820152606490fd5b60405162461bcd60e51b815260206004820152601160248201527f4e6f206974656d7320696e206f726465720000000000000000000000000000006044820152606490fd5b604051633ee5aeb560e01b8152600490fd5b34610235576000366003190112610235576020600c54604051908152f35b34610235576020366003190112610235576004356110e9613667565b6110f7600c5482111561353a565b8060005260086020526007604060002001805460ff81166004811015610da4576001036111555760029060ff19161790557fd9a86b644eb5f5b43cc8a700849852481080361c7a4b00ba646d1b46c5585f95602060405160028152a2005b60405162461bcd60e51b815260206004820152601360248201527f4f72646572206e6f7420636f6e6669726d6564000000000000000000000000006044820152606490fd5b346102355760207f945c1c4e99aa89f648fbfe3df471b916f719e16d960fcec0737d4d56bd6968386111cb36613002565b6111d6939193613667565b6111e4600b5485111561330e565b836000526006825280600260406000200155604051908152a2005b3461023557602036600319011261023557600435600052600860205260a060406000206112698154916001600160a01b0360018201541690600581015460ff60076006840154930154169260405195865260208601526040850152606084015260808301906130a3565bf35b3461023557600036600319011261023557602060405160008152f35b34610235576020366003190112610235576004356112a9600a548211156134b4565b60005260076020526020604060002054604051908152f35b34610235576040366003190112610235576112da612f5e565b60043560005260006020526001600160a01b0360406000209116600052602052602060ff604060002054166040519015158152f35b346102355760003660031901126102355760206001600160a01b0360045416604051908152f35b3461023557602036600319011261023557600435611352613667565b611360600c5482111561353a565b8060005260086020526040600020600781019160ff8354166004811015610da45761143f576001600160a01b0380600454169360008080806005880198895490828215611436575bf11561142a577f5677b5d4cf976ac32defbd95a6a5aaf0d1fee450a11fc26f3c11aae6e6c33d06936040936001928360ff198254161790557fd9a86b644eb5f5b43cc8a700849852481080361c7a4b00ba646d1b46c5585f9560208651858152a20154169254606461141c60035483613586565b0482519182526020820152a2005b6040513d6000823e3d90fd5b506108fc6113a8565b60405162461bcd60e51b815260206004820152601460248201527f496e76616c6964206f72646572207374617475730000000000000000000000006044820152606490fd5b3461023557600036600319011261023557600c54600060015b828111156115eb57506114af90613444565b90600160005b828211156114cb57604051806102318682613185565b81600052600860209080825260ff90600790828260406000200154166004811015610da4571561150a575b50505050906115049061338e565b906114b5565b85600052835260406000206040519361152285612e24565b815485526001600160a01b0360018301541681860152611544600283016133b4565b6040860152600382018054611558816131f8565b926115666040519485612e41565b8184526000928352808320908085015b8385106115cf57505050505092849261099c92611504979560606115c69801526115a2600482016133b4565b6080860152600581015460a0860152600681015460c08601520154168983016134a8565b908680806114f6565b60018281926115dd86612e63565b815201930194019391611576565b80600052600860205260ff600760406000200154166004811015610da4571561161d575b6116189061338e565b61149d565b9061162a6116189161338e565b91905061160f565b346102355760208060031936011261023557600435611655600a548211156134b4565b6000526007815261166960406000206133b4565b805161168d611677826131f8565b916116856040519384612e41565b8083526131f8565b601f19018360005b8281106117995750505060005b825181101561173b57806116b860019285613494565b516000526006855260406000206005604051916116d483612dec565b6116dd81612e63565b83526116ea858201612e63565b888401526002810154604084015260ff6003820154161515606084015261171360048201612e63565b6080840152015460a08201526117298285613494565b526117348184613494565b50016116a2565b604080518581528351818701819052600092600582901b830181019186890191899085015b82871061176d5785850386f35b909192938280611789600193603f198a82030186528851612fa2565b9601920196019592919092611760565b6117a161335a565b828286010152018490611695565b346102355760003660031901126102355760206040517fa49807205ce4d355092ef5a8a18f56e8913cf4a201fbe287825b095693c217758152f35b3461023557600036600319011261023557602060ff600254166040519015158152f35b34610235576020806003193601126102355760043590611831600c5483111561353a565b8160005260088152604060002090600782019160ff8354166004811015610da4571580611922575b156118dd5760008080836001600160a01b03600161188b600585980154606461188460035483613586565b0490613599565b920154168282156118d4575bf11561142a577fd9a86b644eb5f5b43cc8a700849852481080361c7a4b00ba646d1b46c5585f9591600360ff1982541617905560405160038152a2005b506108fc611897565b60405162461bcd60e51b815260048101839052601360248201527f43616e6e6f742063616e63656c206f72646572000000000000000000000000006044820152606490fd5b506001600160a01b0360018201541633148061185957507fa49807205ce4d355092ef5a8a18f56e8913cf4a201fbe287825b095693c2177560005260008252604060002033600052825260ff60406000205416611859565b346102355760a03660031901126102355760043567ffffffffffffffff602435818111610235576119af903690600401613018565b90604435818111610235576119c8903690600401613018565b90606435818111610235576119e1903690600401613018565b6119e96131e9565b926119f2613667565b611a00600a548711156134b4565b8560005260056020938185526040600020928751908282116107ba57611a268554612db2565b91601f92838111611d62575b5087838211600114611cfc579080611a5f92600091611cf157508160011b916000199060031b1c19161790565b85555b600190818601908051908582116107ba57611a7d8354612db2565b8a868211611cba575b50508990858311600114611c5657611ab6929160009183611c4b5750508160011b916000199060031b1c19161790565b90555b600285019386519384116107ba57611ad18554612db2565b838111611c1d575b505086918311600114611b895750866003611b71957fcf699564fdbce145733486dcfbabd9f9e43650b054f677bbc4f45fd4fd7dca569a9895611b3b86611b649c9a97611b5097600091611b7e57508160011b916000199060031b1c19161790565b90555b019060ff801983541691151516179055565b604051958695606087526060870190612f08565b9185830390860152612f08565b90151560408301520390a2005b90508801513861059b565b9190601f1982169084600052876000209160005b818110611c085750957fcf699564fdbce145733486dcfbabd9f9e43650b054f677bbc4f45fd4fd7dca569a98958a989585611b649c95600395611b5098611b719c10611bf0575b5050811b019055611b3e565b89015160001983881b60f8161c191690558f80611be4565b88830151845592850192918901918901611b9d565b611c449186600052896000209085808801821c8301938c8910610f075701901c019061339d565b8a80611ad9565b015190508e806105fb565b849291601f19831691856000528c600020928d6000905b828210611ca35750508411611c8a575b505050811b019055611ab9565b015160001960f88460031b161c191690558d8080611c7d565b83850151865589979095019493840193018e611c6d565b611ce191856000528782600020918187018c1c8301938710611ce8575b018a1c019061339d565b8d8a611a86565b92508192611cd7565b90508b01518d61059b565b60008781528981209190601f198416908b8e5b838310611d4b575050509083600194939210611d32575b5050811b018555611a62565b8c015160001960f88460031b161c191690558c80611d26565b840151855560019094019392830192018b8e611d0f565b611d8990876000528960002085808501891c8201928c8610611d8f575b01881c019061339d565b8b611a32565b92508192611d7f565b34610235576000366003190112610235576020600b54604051908152f35b3461023557600036600319011261023557611dcf613667565b478015611df1576000808080936001600160a01b036004541682f11561142a57005b60405162461bcd60e51b815260206004820152601360248201527f4e6f206665657320746f207769746864726177000000000000000000000000006044820152606490fd5b3461023557604036600319011261023557611e4f612f5e565b336001600160a01b03821603611e6b5761030e90600435613786565b60405163334bd91960e11b8152600490fd5b346102355760403660031901126102355761030e600435611e9c612f5e565b90806000526000602052611eb76001604060002001546136e1565b613707565b346102355760a03660031901126102355760043567ffffffffffffffff811161023557611eed903690600401613018565b60243567ffffffffffffffff811161023557611f0d903690600401613018565b60643567ffffffffffffffff811161023557611f2d903690600401613018565b611f35613667565b611f45600a5460843511156134b4565b608435600052600560205260ff600360406000200154161561236157611f6c600b5461338e565b9081600b5560405192611f7e84612dec565b8484526020840152604435604084015260016060840152608083015260843560a08301526000526006602052604060002091815192835167ffffffffffffffff81116107ba57611fce8254612db2565b601f811161232f575b506020601f82116001146122c657819061200a939495966000926122175750508160011b916000199060031b1c19161790565b81555b602083015192835167ffffffffffffffff81116107ba576120316001840154612db2565b601f8111612291575b506020601f821160011461222257819061206d939495966000926122175750508160011b916000199060031b1c19161790565b60018301555b6040810151600283015561209c60608201511515600384019060ff801983541691151516179055565b60048201608082015180519067ffffffffffffffff82116107ba576120c18354612db2565b601f81116121e5575b50602090601f831160011461217757826005959360a09593612102936000926106e35750508160011b916000199060031b1c19161790565b90555b015191015560843560005260076020526121266040600020600b5490613500565b7f896accec5ae5388180d76be4a3afd7396b26c0223b39f5dd4806500e7aff3bc5612162600b5492604051918291606083526060830190612f08565b608435602083015260443560408301520390a2005b90601f198316918460005260206000209260005b8181106121cd57509260019285926005989660a09896106121b4575b505050811b019055612105565b015160001960f88460031b161c191690558880806121a7565b9293602060018192878601518155019501930161218b565b61221190846000526020600020601f850160051c810191602086106107b057601f0160051c019061339d565b866120ca565b0151905086806105fb565b6001840160005260206000209060005b601f1984168110612279575060019394959683601f19811610612260575b505050811b016001830155612073565b015160001960f88460031b161c19169055858080612250565b9091602060018192858b015181550193019101612232565b6122c090600185016000526020600020601f840160051c810191602085106107b057601f0160051c019061339d565b8561203a565b8260005260206000209060005b601f1984168110612317575060019394959683601f198116106122fe575b505050811b01815561200d565b015160001960f88460031b161c191690558580806122f1565b9091602060018192858b0151815501930191016122d3565b61235b90836000526020600020601f840160051c810191602085106107b057601f0160051c019061339d565b85611fd7565b60405162461bcd60e51b815260206004820152601660248201527f43617465676f7279206973206e6f7420616374697665000000000000000000006044820152606490fd5b34610235576000366003190112610235576020600354604051908152f35b346102355760203660031901126102355760043560005260006020526020600160406000200154604051908152f35b346102355760209081600319360112610235576001600160a01b0380612417612f48565b166000526009835261242c60406000206133b4565b916124378351613444565b9360005b84518110156125405761244e8186613494565b516000526008825260406000206040519061246882612e24565b80548252600186818301541685840152612484600283016133b4565b604084015260038201908154612499816131f8565b926124a76040519485612e41565b818452600090815287812090888086015b8483106125235750505050505060ff600784936125079360606001989701526124e3600482016133b4565b6080860152600581015460a0860152600681015460c08601520154168683016134a8565b6125118289613494565b5261251c8188613494565b500161243b565b8591829161253086612e63565b81520193019101909189906124b8565b604051806102318882613185565b346102355760603660031901126102355767ffffffffffffffff60043581811161023557612580903690600401613018565b60243582811161023557612598903690600401613018565b91604435818111610235576125b1903690600401613018565b926125ba613667565b6125c5600a5461338e565b80600a55604051916125d683612e08565b84835260209384840191825260408401918783526060850193600190818652600052600590818852604060002096519283518581116107ba576126198954612db2565b94601f958b87821161292b575b50508a908683116001146128c757612656929160009183611c4b5750508160011b916000199060031b1c19161790565b88555b518051888301918682116107ba576126718354612db2565b8b87821161289a575b50508a90868311600114612836576126aa929160009183611c4b5750508160011b916000199060031b1c19161790565b90555b6002870194519182519485116107ba576126c78654612db2565b848111612808575b505087928411600114612774575061276f9461276297946127318561274a967f510ee7f48ff820779f721c841c49c1e77c93503579ecd7ff4237e15d710504a99c9a96600396600092611c4b5750508160011b916000199060031b1c19161790565b90555b51151591019060ff801983541691151516179055565b600a5495604051948594604086526040860190612f08565b9184830390850152612f08565b0390a2005b9291601f1983169185600052886000209260005b8181106127f35750948460039461276f99946127629c99947f510ee7f48ff820779f721c841c49c1e77c93503579ecd7ff4237e15d710504a99e9c9861274a9a106127db575b505050811b019055612734565b015160001983881b60f8161c191690558d80806127ce565b82840151855593860193928a01928a01612788565b61282f91876000528a6000209086808901821c8301938d8a10610f075701901c019061339d565b8a806126cf565b8492918c91601f1984168660005283600020936000905b828210612883575050841161286a575b505050811b0190556126ad565b015160001960f88460031b161c191690558d808061285d565b83850151865589979095019493840193018f61284d565b6128c091856000528882600020918187018a1c8301938710611d8f5701881c019061339d565b8d8b61267a565b8492918c91601f1984168d60005283600020936000905b82821061291457505084116128fb575b505050811b018855612659565b015160001960f88460031b161c191690558d80806128ee565b83850151865589979095019493840193018f6128de565b612951918c6000528882600020918187018a1c8301938710611d8f5701881c019061339d565b8d8b612626565b346102355761296636613002565b906000526007602052604060002080548210156102355760209161298991612f74565b90546040519160031b1c8152f35b34610235576020366003190112610235576004356129b361335a565b506129c2600b5482111561330e565b600052600660205261023160406000206005604051916129e183612dec565b6129ea81612e63565b83526129f860018201612e63565b60208401526002810154604084015260ff60038201541615156060840152612a2260048201612e63565b6080840152015460a0820152604051918291602083526020830190612fa2565b346102355760208060031936011261023557600435612a5f613667565b612a6d600b5482111561330e565b600081815260066020526040902060038101805460ff818116151660ff1990911617815560ff60028301549154169060405192606084526000958154612ab281612db2565b92836060880152608090600192600181169081600014612b6c5750600114612b0d575b887f3180bb0fefc77f02602140c09c36b1954a46b6aa4b78141cfc6c15d38295fbb689808d8b8b6020840152151560408301520390a2005b600090815260208120959950945b848610612b595750505050908301608001949050817f3180bb0fefc77f02602140c09c36b1954a46b6aa4b78141cfc6c15d38295fbb6848880612ad5565b8054888701830152948301948201612b1b565b925050507f3180bb0fefc77f02602140c09c36b1954a46b6aa4b78141cfc6c15d38295fbb697985060809250869593915060ff191682860152151560051b840101959481938880612ad5565b3461023557604036600319011261023557612bd1612f48565b6001600160a01b0360243591166000526009602052604060002080548210156102355760209161298991612f74565b34610235576020366003190112610235576004356000526006602052612c756040600020612c2d81612e63565b90612c9d612c3d60018301612e63565b9160028101549060ff600382015416612c836005612c5d60048501612e63565b9301549560405198899860c08a5260c08a0190612f08565b9088820360208a0152612f08565b926040870152151560608601528482036080860152612f08565b9060a08301520390f35b3461023557602036600319011261023557600435612cc3613667565b60148111612cfc576020817f45610d581145924dd7090a5017e5f2b1d6f42213bb2e95707ff86846bbfcb1ca92600355604051908152a1005b60405162461bcd60e51b815260206004820152600c60248201527f46656520746f6f206869676800000000000000000000000000000000000000006044820152606490fd5b34610235576000366003190112610235576020600a54604051908152f35b34610235576020366003190112610235576004359063ffffffff60e01b821680920361023557602091637965db0b60e01b8114908115612da1575b5015158152f35b6301ffc9a760e01b14905083612d9a565b90600182811c92168015612de2575b6020831014612dcc57565b634e487b7160e01b600052602260045260246000fd5b91607f1691612dc1565b60c0810190811067ffffffffffffffff8211176107ba57604052565b6080810190811067ffffffffffffffff8211176107ba57604052565b610100810190811067ffffffffffffffff8211176107ba57604052565b90601f8019910116810190811067ffffffffffffffff8211176107ba57604052565b90604051918260008254612e7681612db2565b90818452602094600191600181169081600014612ee65750600114612ea7575b505050612ea592500383612e41565b565b600090815285812095935091905b818310612ece575050612ea59350820101388080612e96565b85548884018501529485019487945091830191612eb5565b92505050612ea594925060ff191682840152151560051b820101388080612e96565b919082519283825260005b848110612f34575050826000602080949584010152601f8019910116010190565b602081830181015184830182015201612f13565b600435906001600160a01b038216820361023557565b602435906001600160a01b038216820361023557565b8054821015612f8c5760005260206000200190600090565b634e487b7160e01b600052603260045260246000fd5b9060a080612ff9612fd1612fbf865160c0875260c0870190612f08565b60208701518682036020880152612f08565b6040860151604086015260608601511515606086015260808601518582036080870152612f08565b93015191015290565b6040906003190112610235576004359060243590565b81601f820112156102355780359067ffffffffffffffff82116107ba576040519261304d601f8401601f191660200185612e41565b8284526020838301011161023557816000926020809301838601378301015290565b90815180825260208080930193019160005b82811061308f575050505090565b835185529381019392810192600101613081565b906004821015610da45752565b90610100825182526130e36020916001600160a01b0383860151168385015260408501519080604086015284019061306f565b60608401519183820360608501528251908183528083019281808460051b8301019501936000915b848310613157575050505050509060e080613135613154946080870151858203608087015261306f565b9460a081015160a085015260c081015160c085015201519101906130a3565b90565b9091929394958480613175600193601f198682030187528a51612f08565b980193019301919493929061310b565b6020808201906020835283518092526040830192602060408460051b8301019501936000915b8483106131bb5750505050505090565b90919293949584806131d9600193603f198682030187528a516130b0565b98019301930191949392906131ab565b60843590811515820361023557565b67ffffffffffffffff81116107ba5760051b60200190565b9080601f8301121561023557602090823561322a816131f8565b936132386040519586612e41565b81855260208086019260051b82010192831161023557602001905b828210613261575050505090565b81358152908301908301613253565b9060608061329f61328d612fbf8651608087526080870190612f08565b60408601518582036040870152612f08565b930151151591015290565b6020808201906020835283518092526040830192602060408460051b8301019501936000915b8483106132e05750505050505090565b90919293949584806132fe600193603f198682030187528a51613270565b98019301930191949392906132d0565b1561331557565b60405162461bcd60e51b815260206004820152601360248201527f466f6f6420646f6573206e6f74206578697374000000000000000000000000006044820152606490fd5b6040519061336782612dec565b600060a0836060815260606020820152826040820152826060820152606060808201520152565b60001981146102b95760010190565b8181106133a8575050565b6000815560010161339d565b90604051918281549182825260209260208301916000526020600020936000905b8282106133eb57505050612ea592500383612e41565b8554845260019586019588955093810193909101906133d5565b6040519061341282612e24565b600060e08382815282602082015260606040820152606080820152606060808201528260a08201528260c08201520152565b9061344e826131f8565b61345b6040519182612e41565b828152809261346c601f19916131f8565b019060005b82811061347d57505050565b602090613488613405565b82828501015201613471565b8051821015612f8c5760209160051b010190565b6004821015610da45752565b156134bb57565b60405162461bcd60e51b815260206004820152601760248201527f43617465676f727920646f6573206e6f742065786973740000000000000000006044820152606490fd5b8054680100000000000000008110156107ba5761352291600182018155612f74565b819291549060031b91821b91600019901b1916179055565b1561354157565b60405162461bcd60e51b815260206004820152601460248201527f4f7264657220646f6573206e6f742065786973740000000000000000000000006044820152606490fd5b818102929181159184041417156102b957565b919082018092116102b957565b604051906135b382612e08565b60006060838181528160208201528160408201520152565b906135d5826131f8565b6135e26040519182612e41565b82815280926135f3601f19916131f8565b019060005b82811061360457505050565b60209061360f6135a6565b828285010152016135f8565b9060405161362881612e08565b606060ff6003839561363981612e63565b855261364760018201612e63565b602086015261365860028201612e63565b60408601520154161515910152565b3360009081527f7d7ffb7a348e1c6a02869081a26547b49160dd3df72d1d75a570eb9b698292ec60205260409020547fa49807205ce4d355092ef5a8a18f56e8913cf4a201fbe287825b095693c217759060ff16156136c35750565b6044906040519063e2517d3f60e01b82523360048301526024820152fd5b80600052600060205260406000203360005260205260ff60406000205416156136c35750565b90600091808352826020526001600160a01b036040842092169182845260205260ff6040842054161560001461378157808352826020526040832082845260205260408320600160ff198254161790557f2f8788117e7eff1d82e926ec794901d17c78024a50270940304540a733656f0d339380a4600190565b505090565b90600091808352826020526001600160a01b036040842092169182845260205260ff6040842054166000146137815780835282602052604083208284526020526040832060ff1981541690557ff6391f5c32d9c69d2a47ea670b442974b53935d1edc7fd64eb21e047a839171b339380a460019056fea164736f6c6343000818000a2f8788117e7eff1d82e926ec794901d17c78024a50270940304540a733656f0d",
    "linkReferences": {},
    "deployedLinkReferences": {}
}